{
  "_format": "hh-sol-artifact-1",
  "contractName": "nftsIPFS",
  "sourceName": "contracts/nftsIPFS.sol",
  "abi": [
    {
      "inputs": [
        {
          "internalType": "uint256",
          "name": "_id",
          "type": "uint256"
        }
      ],
      "name": "donateToImage",
      "outputs": [],
      "stateMutability": "payable",
      "type": "function"
    },
    {
      "inputs": [],
      "name": "getAllNFTs",
      "outputs": [
        {
          "components": [
            {
              "internalType": "string",
              "name": "title",
              "type": "string"
            },
            {
              "internalType": "string",
              "name": "description",
              "type": "string"
            },
            {
              "internalType": "string",
              "name": "email",
              "type": "string"
            },
            {
              "internalType": "string",
              "name": "category",
              "type": "string"
            },
            {
              "internalType": "uint256",
              "name": "fundraised",
              "type": "uint256"
            },
            {
              "internalType": "address",
              "name": "creator",
              "type": "address"
            },
            {
              "internalType": "string",
              "name": "image",
              "type": "string"
            },
            {
              "internalType": "uint256",
              "name": "timestamp",
              "type": "uint256"
            },
            {
              "internalType": "uint256",
              "name": "id",
              "type": "uint256"
            }
          ],
          "internalType": "struct nftsIPFS.NFTs[]",
          "name": "",
          "type": "tuple[]"
        }
      ],
      "stateMutability": "view",
      "type": "function"
    },
    {
      "inputs": [
        {
          "internalType": "uint256",
          "name": "id",
          "type": "uint256"
        }
      ],
      "name": "getImage",
      "outputs": [
        {
          "internalType": "string",
          "name": "",
          "type": "string"
        },
        {
          "internalType": "string",
          "name": "",
          "type": "string"
        },
        {
          "internalType": "string",
          "name": "",
          "type": "string"
        },
        {
          "internalType": "string",
          "name": "",
          "type": "string"
        },
        {
          "internalType": "uint256",
          "name": "",
          "type": "uint256"
        },
        {
          "internalType": "address",
          "name": "",
          "type": "address"
        },
        {
          "internalType": "string",
          "name": "",
          "type": "string"
        },
        {
          "internalType": "uint256",
          "name": "",
          "type": "uint256"
        },
        {
          "internalType": "uint256",
          "name": "",
          "type": "uint256"
        }
      ],
      "stateMutability": "view",
      "type": "function"
    },
    {
      "inputs": [],
      "name": "imagesCount",
      "outputs": [
        {
          "internalType": "uint256",
          "name": "",
          "type": "uint256"
        }
      ],
      "stateMutability": "view",
      "type": "function"
    },
    {
      "inputs": [],
      "name": "listingPrice",
      "outputs": [
        {
          "internalType": "uint256",
          "name": "",
          "type": "uint256"
        }
      ],
      "stateMutability": "view",
      "type": "function"
    },
    {
      "inputs": [
        {
          "internalType": "uint256",
          "name": "",
          "type": "uint256"
        }
      ],
      "name": "nftImages",
      "outputs": [
        {
          "internalType": "string",
          "name": "title",
          "type": "string"
        },
        {
          "internalType": "string",
          "name": "description",
          "type": "string"
        },
        {
          "internalType": "string",
          "name": "email",
          "type": "string"
        },
        {
          "internalType": "string",
          "name": "category",
          "type": "string"
        },
        {
          "internalType": "uint256",
          "name": "fundraised",
          "type": "uint256"
        },
        {
          "internalType": "address",
          "name": "creator",
          "type": "address"
        },
        {
          "internalType": "string",
          "name": "image",
          "type": "string"
        },
        {
          "internalType": "uint256",
          "name": "timestamp",
          "type": "uint256"
        },
        {
          "internalType": "uint256",
          "name": "id",
          "type": "uint256"
        }
      ],
      "stateMutability": "view",
      "type": "function"
    },
    {
      "inputs": [
        {
          "internalType": "uint256",
          "name": "_listingPrice",
          "type": "uint256"
        },
        {
          "internalType": "address",
          "name": "owner",
          "type": "address"
        }
      ],
      "name": "updateListingPrice",
      "outputs": [],
      "stateMutability": "payable",
      "type": "function"
    },
    {
      "inputs": [
        {
          "internalType": "address",
          "name": "_creator",
          "type": "address"
        },
        {
          "internalType": "string",
          "name": "_image",
          "type": "string"
        },
        {
          "internalType": "string",
          "name": "_title",
          "type": "string"
        },
        {
          "internalType": "string",
          "name": "_description",
          "type": "string"
        },
        {
          "internalType": "string",
          "name": "_email",
          "type": "string"
        },
        {
          "internalType": "string",
          "name": "_category",
          "type": "string"
        }
      ],
      "name": "uploadIPFS",
      "outputs": [
        {
          "internalType": "string",
          "name": "",
          "type": "string"
        },
        {
          "internalType": "string",
          "name": "",
          "type": "string"
        },
        {
          "internalType": "string",
          "name": "",
          "type": "string"
        },
        {
          "internalType": "address",
          "name": "",
          "type": "address"
        },
        {
          "internalType": "string",
          "name": "",
          "type": "string"
        }
      ],
      "stateMutability": "payable",
      "type": "function"
    },
    {
      "inputs": [
        {
          "internalType": "address",
          "name": "_owner",
          "type": "address"
        }
      ],
      "name": "withdraw",
      "outputs": [],
      "stateMutability": "nonpayable",
      "type": "function"
    }
  ],
  "bytecode": "0x608060405273b309098bcb51e5c687a16fa41bd6055f47c9ebb06000806101000a81548173ffffffffffffffffffffffffffffffffffffffff021916908373ffffffffffffffffffffffffffffffffffffffff1602179055506658d15e17628000600155600060035534801561007457600080fd5b50611eaf806100846000396000f3fe6080604052600436106100865760003560e01c806380cad5a61161005957806380cad5a614610169578063943e96f614610185578063c78f19f9146101a1578063e0391b09146101cc578063f2a6cb4c146101f757610086565b80632607aafa1461008b578063433ea889146100d057806351cff8d91461011557806356e224af1461013e575b600080fd5b34801561009757600080fd5b506100b260048036038101906100ad91906111b6565b61022b565b6040516100c7999897969594939291906112c3565b60405180910390f35b3480156100dc57600080fd5b506100f760048036038101906100f291906111b6565b6105f8565b60405161010c999897969594939291906112c3565b60405180910390f35b34801561012157600080fd5b5061013c6004803603810190610137919061139f565b61090e565b005b34801561014a57600080fd5b50610153610a4f565b60405161016091906113cc565b60405180910390f35b610183600480360381019061017e91906113e7565b610a55565b005b61019f600480360381019061019a91906111b6565b610aee565b005b3480156101ad57600080fd5b506101b6610bbf565b6040516101c391906113cc565b60405180910390f35b3480156101d857600080fd5b506101e1610bc5565b6040516101ee9190611632565b60405180910390f35b610211600480360381019061020c9190611789565b611001565b6040516102229594939291906118a2565b60405180910390f35b60608060608060008060606000806000600260008c81526020019081526020016000206040518061012001604052908160008201805461026a90611940565b80601f016020809104026020016040519081016040528092919081815260200182805461029690611940565b80156102e35780601f106102b8576101008083540402835291602001916102e3565b820191906000526020600020905b8154815290600101906020018083116102c657829003601f168201915b505050505081526020016001820180546102fc90611940565b80601f016020809104026020016040519081016040528092919081815260200182805461032890611940565b80156103755780601f1061034a57610100808354040283529160200191610375565b820191906000526020600020905b81548152906001019060200180831161035857829003601f168201915b5050505050815260200160028201805461038e90611940565b80601f01602080910402602001604051908101604052809291908181526020018280546103ba90611940565b80156104075780601f106103dc57610100808354040283529160200191610407565b820191906000526020600020905b8154815290600101906020018083116103ea57829003601f168201915b5050505050815260200160038201805461042090611940565b80601f016020809104026020016040519081016040528092919081815260200182805461044c90611940565b80156104995780601f1061046e57610100808354040283529160200191610499565b820191906000526020600020905b81548152906001019060200180831161047c57829003601f168201915b50505050508152602001600482015481526020016005820160009054906101000a900473ffffffffffffffffffffffffffffffffffffffff1673ffffffffffffffffffffffffffffffffffffffff1673ffffffffffffffffffffffffffffffffffffffff16815260200160068201805461051290611940565b80601f016020809104026020016040519081016040528092919081815260200182805461053e90611940565b801561058b5780601f106105605761010080835404028352916020019161058b565b820191906000526020600020905b81548152906001019060200180831161056e57829003601f168201915b50505050508152602001600782015481526020016008820154815250509050806000015181602001518260400151836060015184608001518560a001518660c001518760e00151886101000151995099509950995099509950995099509950509193959799909294969850565b600260205280600052604060002060009150905080600001805461061b90611940565b80601f016020809104026020016040519081016040528092919081815260200182805461064790611940565b80156106945780601f1061066957610100808354040283529160200191610694565b820191906000526020600020905b81548152906001019060200180831161067757829003601f168201915b5050505050908060010180546106a990611940565b80601f01602080910402602001604051908101604052809291908181526020018280546106d590611940565b80156107225780601f106106f757610100808354040283529160200191610722565b820191906000526020600020905b81548152906001019060200180831161070557829003601f168201915b50505050509080600201805461073790611940565b80601f016020809104026020016040519081016040528092919081815260200182805461076390611940565b80156107b05780601f10610785576101008083540402835291602001916107b0565b820191906000526020600020905b81548152906001019060200180831161079357829003601f168201915b5050505050908060030180546107c590611940565b80601f01602080910402602001604051908101604052809291908181526020018280546107f190611940565b801561083e5780601f106108135761010080835404028352916020019161083e565b820191906000526020600020905b81548152906001019060200180831161082157829003601f168201915b5050505050908060040154908060050160009054906101000a900473ffffffffffffffffffffffffffffffffffffffff169080600601805461087f90611940565b80601f01602080910402602001604051908101604052809291908181526020018280546108ab90611940565b80156108f85780601f106108cd576101008083540402835291602001916108f8565b820191906000526020600020905b8154815290600101906020018083116108db57829003601f168201915b5050505050908060070154908060080154905089565b60008054906101000a900473ffffffffffffffffffffffffffffffffffffffff1673ffffffffffffffffffffffffffffffffffffffff168173ffffffffffffffffffffffffffffffffffffffff161461099c576040517f08c379a0000000000000000000000000000000000000000000000000000000008152600401610993906119bd565b60405180910390fd5b6000479050600081116109e4576040517f08c379a00000000000000000000000000000000000000000000000000000000081526004016109db90611a29565b60405180910390fd5b60008054906101000a900473ffffffffffffffffffffffffffffffffffffffff1673ffffffffffffffffffffffffffffffffffffffff166108fc829081150290604051600060405180830381858888f19350505050158015610a4a573d6000803e3d6000fd5b505050565b60035481565b8073ffffffffffffffffffffffffffffffffffffffff1660008054906101000a900473ffffffffffffffffffffffffffffffffffffffff1673ffffffffffffffffffffffffffffffffffffffff1614610ae3576040517f08c379a0000000000000000000000000000000000000000000000000000000008152600401610ada90611abb565b60405180910390fd5b816001819055505050565b6000349050600060026000848152602001908152602001600020905060008160050160009054906101000a900473ffffffffffffffffffffffffffffffffffffffff1673ffffffffffffffffffffffffffffffffffffffff1683604051610b5490611b0c565b60006040518083038185875af1925050503d8060008114610b91576040519150601f19603f3d011682016040523d82523d6000602084013e610b96565b606091505b505090508015610bb957828260040154610bb09190611b50565b82600401819055505b50505050565b60015481565b6060600060035490506000808267ffffffffffffffff811115610beb57610bea61165e565b5b604051908082528060200260200182016040528015610c2457816020015b610c1161110a565b815260200190600190039081610c095790505b50905060005b83811015610ff7576000600182610c419190611b50565b905060006002600083815260200190815260200160002090508060405180610120016040529081600082018054610c7790611940565b80601f0160208091040260200160405190810160405280929190818152602001828054610ca390611940565b8015610cf05780601f10610cc557610100808354040283529160200191610cf0565b820191906000526020600020905b815481529060010190602001808311610cd357829003601f168201915b50505050508152602001600182018054610d0990611940565b80601f0160208091040260200160405190810160405280929190818152602001828054610d3590611940565b8015610d825780601f10610d5757610100808354040283529160200191610d82565b820191906000526020600020905b815481529060010190602001808311610d6557829003601f168201915b50505050508152602001600282018054610d9b90611940565b80601f0160208091040260200160405190810160405280929190818152602001828054610dc790611940565b8015610e145780601f10610de957610100808354040283529160200191610e14565b820191906000526020600020905b815481529060010190602001808311610df757829003601f168201915b50505050508152602001600382018054610e2d90611940565b80601f0160208091040260200160405190810160405280929190818152602001828054610e5990611940565b8015610ea65780601f10610e7b57610100808354040283529160200191610ea6565b820191906000526020600020905b815481529060010190602001808311610e8957829003601f168201915b50505050508152602001600482015481526020016005820160009054906101000a900473ffffffffffffffffffffffffffffffffffffffff1673ffffffffffffffffffffffffffffffffffffffff1673ffffffffffffffffffffffffffffffffffffffff168152602001600682018054610f1f90611940565b80601f0160208091040260200160405190810160405280929190818152602001828054610f4b90611940565b8015610f985780601f10610f6d57610100808354040283529160200191610f98565b820191906000526020600020905b815481529060010190602001808311610f7b57829003601f168201915b5050505050815260200160078201548152602001600882015481525050848681518110610fc857610fc7611b84565b5b6020026020010181905250600185610fe09190611b50565b945050508080610fef90611bb3565b915050610c2a565b5080935050505090565b6060806060600060606003600081548092919061101d90611bb3565b9190505550600060026000600354815260200190815260200160002090508981600001908161104c9190611da7565b508b8160050160006101000a81548173ffffffffffffffffffffffffffffffffffffffff021916908373ffffffffffffffffffffffffffffffffffffffff160217905550888160010190816110a19190611da7565b50878160020190816110b39190611da7565b50868160030190816110c59190611da7565b508a8160060190816110d79190611da7565b5042816007018190555060035481600801819055508989888e8e9550955095509550955050965096509650965096915050565b6040518061012001604052806060815260200160608152602001606081526020016060815260200160008152602001600073ffffffffffffffffffffffffffffffffffffffff1681526020016060815260200160008152602001600081525090565b6000604051905090565b600080fd5b600080fd5b6000819050919050565b61119381611180565b811461119e57600080fd5b50565b6000813590506111b08161118a565b92915050565b6000602082840312156111cc576111cb611176565b5b60006111da848285016111a1565b91505092915050565b600081519050919050565b600082825260208201905092915050565b60005b8381101561121d578082015181840152602081019050611202565b60008484015250505050565b6000601f19601f8301169050919050565b6000611245826111e3565b61124f81856111ee565b935061125f8185602086016111ff565b61126881611229565b840191505092915050565b61127c81611180565b82525050565b600073ffffffffffffffffffffffffffffffffffffffff82169050919050565b60006112ad82611282565b9050919050565b6112bd816112a2565b82525050565b60006101208201905081810360008301526112de818c61123a565b905081810360208301526112f2818b61123a565b90508181036040830152611306818a61123a565b9050818103606083015261131a818961123a565b90506113296080830188611273565b61133660a08301876112b4565b81810360c0830152611348818661123a565b905061135760e0830185611273565b611365610100830184611273565b9a9950505050505050505050565b61137c816112a2565b811461138757600080fd5b50565b60008135905061139981611373565b92915050565b6000602082840312156113b5576113b4611176565b5b60006113c38482850161138a565b91505092915050565b60006020820190506113e16000830184611273565b92915050565b600080604083850312156113fe576113fd611176565b5b600061140c858286016111a1565b925050602061141d8582860161138a565b9150509250929050565b600081519050919050565b600082825260208201905092915050565b6000819050602082019050919050565b600082825260208201905092915050565b600061146f826111e3565b6114798185611453565b93506114898185602086016111ff565b61149281611229565b840191505092915050565b6114a681611180565b82525050565b6114b5816112a2565b82525050565b60006101208301600083015184820360008601526114d98282611464565b915050602083015184820360208601526114f38282611464565b9150506040830151848203604086015261150d8282611464565b915050606083015184820360608601526115278282611464565b915050608083015161153c608086018261149d565b5060a083015161154f60a08601826114ac565b5060c083015184820360c08601526115678282611464565b91505060e083015161157c60e086018261149d565b5061010083015161159161010086018261149d565b508091505092915050565b60006115a883836114bb565b905092915050565b6000602082019050919050565b60006115c882611427565b6115d28185611432565b9350836020820285016115e485611443565b8060005b858110156116205784840389528151611601858261159c565b945061160c836115b0565b925060208a019950506001810190506115e8565b50829750879550505050505092915050565b6000602082019050818103600083015261164c81846115bd565b905092915050565b600080fd5b600080fd5b7f4e487b7100000000000000000000000000000000000000000000000000000000600052604160045260246000fd5b61169682611229565b810181811067ffffffffffffffff821117156116b5576116b461165e565b5b80604052505050565b60006116c861116c565b90506116d4828261168d565b919050565b600067ffffffffffffffff8211156116f4576116f361165e565b5b6116fd82611229565b9050602081019050919050565b82818337600083830152505050565b600061172c611727846116d9565b6116be565b90508281526020810184848401111561174857611747611659565b5b61175384828561170a565b509392505050565b600082601f8301126117705761176f611654565b5b8135611780848260208601611719565b91505092915050565b60008060008060008060c087890312156117a6576117a5611176565b5b60006117b489828a0161138a565b965050602087013567ffffffffffffffff8111156117d5576117d461117b565b5b6117e189828a0161175b565b955050604087013567ffffffffffffffff8111156118025761180161117b565b5b61180e89828a0161175b565b945050606087013567ffffffffffffffff81111561182f5761182e61117b565b5b61183b89828a0161175b565b935050608087013567ffffffffffffffff81111561185c5761185b61117b565b5b61186889828a0161175b565b92505060a087013567ffffffffffffffff8111156118895761188861117b565b5b61189589828a0161175b565b9150509295509295509295565b600060a08201905081810360008301526118bc818861123a565b905081810360208301526118d0818761123a565b905081810360408301526118e4818661123a565b90506118f360608301856112b4565b8181036080830152611905818461123a565b90509695505050505050565b7f4e487b7100000000000000000000000000000000000000000000000000000000600052602260045260246000fd5b6000600282049050600182168061195857607f821691505b60208210810361196b5761196a611911565b5b50919050565b7f4f6e6c79206f776e65722063616e207769746864726177000000000000000000600082015250565b60006119a76017836111ee565b91506119b282611971565b602082019050919050565b600060208201905081810360008301526119d68161199a565b9050919050565b7f4e6f2066756e647320617661696c61626c650000000000000000000000000000600082015250565b6000611a136012836111ee565b9150611a1e826119dd565b602082019050919050565b60006020820190508181036000830152611a4281611a06565b9050919050565b7f4f6e6c7920636f6e7472616374206f776e65722063616e20757064617465206c60008201527f697374696e672070726963652e00000000000000000000000000000000000000602082015250565b6000611aa5602d836111ee565b9150611ab082611a49565b604082019050919050565b60006020820190508181036000830152611ad481611a98565b9050919050565b600081905092915050565b50565b6000611af6600083611adb565b9150611b0182611ae6565b600082019050919050565b6000611b1782611ae9565b9150819050919050565b7f4e487b7100000000000000000000000000000000000000000000000000000000600052601160045260246000fd5b6000611b5b82611180565b9150611b6683611180565b9250828201905080821115611b7e57611b7d611b21565b5b92915050565b7f4e487b7100000000000000000000000000000000000000000000000000000000600052603260045260246000fd5b6000611bbe82611180565b91507fffffffffffffffffffffffffffffffffffffffffffffffffffffffffffffffff8203611bf057611bef611b21565b5b600182019050919050565b60008190508160005260206000209050919050565b60006020601f8301049050919050565b600082821b905092915050565b600060088302611c5d7fffffffffffffffffffffffffffffffffffffffffffffffffffffffffffffffff82611c20565b611c678683611c20565b95508019841693508086168417925050509392505050565b6000819050919050565b6000611ca4611c9f611c9a84611180565b611c7f565b611180565b9050919050565b6000819050919050565b611cbe83611c89565b611cd2611cca82611cab565b848454611c2d565b825550505050565b600090565b611ce7611cda565b611cf2818484611cb5565b505050565b5b81811015611d1657611d0b600082611cdf565b600181019050611cf8565b5050565b601f821115611d5b57611d2c81611bfb565b611d3584611c10565b81016020851015611d44578190505b611d58611d5085611c10565b830182611cf7565b50505b505050565b600082821c905092915050565b6000611d7e60001984600802611d60565b1980831691505092915050565b6000611d978383611d6d565b9150826002028217905092915050565b611db0826111e3565b67ffffffffffffffff811115611dc957611dc861165e565b5b611dd38254611940565b611dde828285611d1a565b600060209050601f831160018114611e115760008415611dff578287015190505b611e098582611d8b565b865550611e71565b601f198416611e1f86611bfb565b60005b82811015611e4757848901518255600182019150602085019450602081019050611e22565b86831015611e645784890151611e60601f891682611d6d565b8355505b6001600288020188555050505b50505050505056fea2646970667358221220196e8754a9376b1e4abcec52e6d1f5d5d04c0a6e65e0276755d3881b1754cbd864736f6c63430008120033",
  "linkReferences": {},
  "deployedLinkReferences": {}
}